:100000000C9464000C948C000C948C000C948C0068
:100010000C948C000C948C000C948C000C948C0030
:100020000C948C000C948C000C948C000C948C0020
:100030000C948C000C948C000C948C000C948C0010
:100040000C9430080C948C000C94F1030C94220452
:100050000C948C000C948C000C948C000C948C00F0
:100060000C948C000C948C000000000024002700ED
:100070002A0000000000250028002B0000000000DE
:1000800023002600290004040404040404040202DA
:100090000202020203030303030301020408102007
:1000A0004080010204081020010204081020000012
:1000B0000007000201000003040600000000000029
:1000C00000006702E7041B0811241FBECFEFD8E031
:1000D000DEBFCDBF11E0A0E0B1E0E8E0F2E102C098
:1000E00005900D92A232B107D9F716E0A2E2B1E075
:1000F00001C01D92A036B107E1F710E0C8ECD0E0D6
:1001000004C02297FE010E94FE08C23CD107C9F735
:100110000E9424050C9402090C940000FC018481C7
:100120009581009741F481E02681378121153105C1
:1001300019F080E0089580E008958F929F92AF9229
:10014000BF92CF92DF92EF92FF920F931F93DF93B4
:10015000CF93CDB7DEB7A0970FB6F894DEBF0FBE32
:10016000CDBF4E010894811C911CE5E0D4011D9285
:10017000EA95E9F7E1E0E9835A834B833C832D83D9
:1001800026E0A22EB12CAC0EBD1E6C01EE24FF2485
:100190008B0120E030E0C501B701A6010E945C0799
:1001A0008E01025F1F4FC801B501A40125E00E9426
:1001B0006A0782E291E0B8010E94AA07A0960FB6F2
:1001C000F894DEBF0FBECDBFCF91DF911F910F918D
:1001D000FF90EF90DF90CF90BF90AF909F908F9067
:1001E0000895CF92DF92EF92FF920F931F93CF93D8
:1001F000DF937C01D62EC72E009709F441C085E01D
:10020000E816F10459F4862F0E940E0361E000976E
:1002100009F060E08D2D0E94D60232C0CCEBD1E017
:1002200000E010E088819981009751F18E159F05BB
:1002300009F5C801880F991F980143E0220F331F69
:100240004A95E1F7820F931F84549E4F0E948E00BF
:10025000882339F0888599856D2D7C2D0E94F100C9
:1002600009C06C817D818E819F81A7012D2D3C2D40
:100270000E949D000F5F1F4F2A960436110591F6CC
:10028000DF91CF911F910F91FF90EF90DF90CF9072
:100290000895CF93DF93C0E3D6E0CE0140E855E266
:1002A00060E070E00E94690482E291E0BE010E9479
:1002B000820682E060E00E94B20283E061E00E9478
:1002C000B20284E061E00E94B20285E061E00E9437
:1002D000B20286E061E00E94B20287E061E00E9423
:1002E000B20288E061E00E94B20289E061E00E940F
:1002F000B2028AE061E00E94B2028BE061E00E94FB
:10030000B2028CE060E00E94B2028DE061E00E94E7
:10031000B202DF91CF9108950F931F93DF93CF9394
:10032000CDB7DEB76E970FB6F894DEBF0FBECDBF68
:100330002F8B388F498F5A8F6B8F7C8F8D8F9E8F2D
:10034000AE014F5F5F4F83E0FA0111928A95E9F7A2
:100350001A830B838E010C5F1F4FC801BE01695EBB
:100360007F4F23E00E946A0782E291E0B8010E9479
:10037000AA076E960FB6F894DEBF0FBECDBFCF9121
:10038000DF911F910F910895FF920F931F9389EAB8
:1003900091E061E070E00E945606882319F08130F8
:1003A000C9F512C089EA91E00E94BC05FC012081D8
:1003B000318142815381648175818681978102E018
:1003C00010E00E948C0126C089EA91E062E070E0B2
:1003D0000E945606F82E89EA91E063E070E00E94E0
:1003E0005606182F89EA91E064E070E00E945606F4
:1003F000082F89EA91E065E070E00E9456063F2DE3
:1004000020E0702F60E0680F711DC901810F911D00
:100410000E94F1001F910F91FF90089582E291E0F8
:100420000E94C30682E291E00E94C2060E94B905C2
:10043000882391F082E291E00E94C2060E94B605F4
:10044000803951F482E291E00E94C2066BEA71E0C9
:100450000E94E2050E94C40182E00E940E0321E096
:10046000009709F420E02093A4058CE00E940E037D
:1004700021E0009709F420E02093A5058091A405D0
:100480009091A605891771F08093A605882351F4F1
:1004900080E090E06FEF7FEF42E050E022E030E05C
:1004A0000E949D008091A5059091A705891771F084
:1004B0008093A705882351F480E090E06FEF7FEFF1
:1004C00042E050E02CE030E00E949D00089582E27E
:1004D00091E00E94700680EA91E00E94B50589EAE9
:1004E00091E00E94C105ECEBF1E0118210821382D1
:1004F00012821582148217821682118610863A960D
:1005000085E0E43AF80789F70895833071F0843084
:1005100028F48130A1F0823021F514C08630B1F08A
:100520008730D1F08430E9F404C0809180008F7767
:1005300003C0809180008F7D80938000089584B5F2
:100540008F7702C084B58F7D84BD08958091B000FF
:100550008F778093B00008958091B0008F7D809355
:10056000B000089590E0FC01E656FF4F2491FC0195
:10057000EA57FF4FE491EE23C1F0F0E0EE0FFF1FCA
:10058000E859FF4F85919491DC01662341F49FB7B0
:10059000F8948C91209582238C939FBF08959FB7E8
:1005A000F8948C91822B8C939FBF08950F931F9387
:1005B000DF93CF930F92CDB7DEB7282F30E0F9014C
:1005C000E255FF4F8491F901E656FF4F14912A57E7
:1005D0003F4FF90104910023D9F0882321F069836A
:1005E0000E9485026981E02FF0E0EE0FFF1FEE58B8
:1005F000FF4F85919491DC019FB7F894662321F415
:100600008C911095812302C08C91812B8C939FBF7C
:100610000F90CF91DF911F910F9108950F931F932A
:10062000282F30E0F901E255FF4F8491F901E65699
:10063000FF4F04912A573F4FF9011491112391F074
:10064000882311F00E948502E12FF0E0EE0FFF1FDA
:10065000E458FF4F85919491DC018C91802321E037
:1006600030E011F420E030E0C9011F910F910895AE
:10067000FC0184859585FC01E05CFF4F2081318180
:100680008E5B9F4FFC0180819181281B390B2F735A
:100690003070C9010895FC0184859585FC01E05CFA
:1006A000FF4F40815181FC01EE5BFF4F2081318182
:1006B0004217530741F00190F081E02DE80FF91F38
:1006C000208130E002C02FEF3FEFC9010895FC0107
:1006D00084859585FC01E05CFF4F40815181FC01E0
:1006E000EE5BFF4F208131814217530771F0A081EB
:1006F000B181A80FB91F2C918081918101968F73D0
:1007000090709183808330E002C02FEF3FEFC901EA
:100710000895DC011E968D919C911F97FC01E05C71
:10072000FF4F8E5B9F4F40815181DC012D913C91A9
:10073000119742175307B9F708951F93FC01162F1D
:1007400026853785D901A05CBF4F8D919C9101967C
:1007500060E470E00E94B308D901AE5BBF4F4D91D9
:100760005C91119784179507D1F3D901A05CBF4F15
:100770000D90BC91A02DA20FB31F1C93A685B78529
:10078000A05CBF4F11969C938E93A689B7892C913C
:1007900081E090E0058C02C0880F991F0A94E2F76F
:1007A000282B2C9381E090E01F910895FB01E05CE1
:1007B000FF4F208131812F5F3F4F2F733070DB015E
:1007C000AE5BBF4F4D915C9111972417350739F0FF
:1007D000A081B181A60FB71F8C9331832083089528
:1007E00008951F920F920FB60F9211242F933F93EB
:1007F0004F935F936F937F938F939F93AF93BF9329
:10080000EF93FF938091C60068EA75E00E94D603DB
:10081000FF91EF91BF91AF919F918F917F916F91D8
:100820005F914F913F912F910F900FBE0F901F90AE
:10083000189580E396E00E943803009711F00E941B
:10084000F00308951F920F920FB60F9211242F9369
:100850003F935F936F937F938F939F93AF93BF93D8
:10086000EF93FF9320912C0630912D0680912E0658
:1008700090912F062817390731F48091C1008F7DA0
:100880008093C10016C0E0912E06F0912F06E4512E
:10089000FA4F208180912E0690912F06019660E4F8
:1008A00070E00E94B30890932F0680932E06209349
:1008B000C600FF91EF91BF91AF919F918F917F9172
:1008C0006F915F913F912F910F900FBE0F901F90EE
:1008D0001895DF92EF92FF920F931F93CF93DF93C0
:1008E000EC017A018B01DD24D394403081EE58076E
:1008F00080E0680780E0780749F4DD24EC89FD8911
:10090000108260E874E88EE190E00FC0EC89FD8908
:1009100081E090E00E8C02C0880F991F0A94E2F7E4
:10092000808360E079E08DE390E0A80197010E9468
:10093000C608215030404040504056954795379565
:10094000279580E12030380710F0DD20B1F6E889E6
:10095000F9893083EA89FB892083EE89FF89408108
:1009600081E090E09C010A8C02C0220F331F0A94A0
:10097000E2F7422B4083EE89FF8940819C010B8C7A
:1009800002C0220F331F0A94E2F7422B4083EE8904
:10099000FF8940819C010C8C02C0220F331F0A94F6
:1009A000E2F7422B4083EE89FF8920810D8C02C043
:1009B000880F991F0A94E2F7809582238083DF9144
:1009C000CF911F910F91FF90EF90DF9008951092BB
:1009D00033061092320688EE93E0A0E0B0E08093F8
:1009E000340690933506A0933606B0933706E2E3BB
:1009F000F6E084E091E09293829388EA95E095870F
:100A000084878CEE95E09787868785EC90E0918BC4
:100A1000808B84EC90E0938B828B80EC90E0958BC4
:100A2000848B81EC90E0978B868B86EC90E0918FA5
:100A3000808F84E0828F83E0838F87E0848F85E0DE
:100A4000858F81E0868F0895CF93DF930E94780889
:100A50000E944901C9E1D4E00E940E022097E1F30F
:100A60000E941904F9CFCF92DF92EF92FF920F9379
:100A70001F93CF93DF936C017B018A01C0E0D0E02C
:100A80000FC0D7016D917D01D601ED91FC910190D0
:100A9000F081E02DC6010995C80FD91F0150104003
:100AA0000115110571F7CE01DF91CF911F910F91C3
:100AB000FF90EF90DF90CF9008951F93DC01169682
:100AC0001C911697ED91FC910280F381E02D099520
:100AD0001150181B812F1F910895DC01ED91FC919D
:100AE0000480F581E02D09958E5F089588E00895D2
:100AF000FC01662311F482850895613011F481852B
:100B00000895623011F480850895633011F487816F
:100B10000895643011F486850895653011F4858553
:100B20000895663011F484850895673011F4838543
:100B30000895683011F480890895693011F487852B
:100B400008956A3011F4818908956B3011F4828917
:100B500008950480F581E02DE60FF11D3C9780811A
:100B60000895FC018681845F08950895FC018281C7
:100B70000895FC01878108959C01255F3F4FC901BD
:100B80000895DF93CF93CDB7DEB728970FB6F894CB
:100B9000DEBF0FBECDBFDC018CE191E011969C93CE
:100BA0008E931B96FE01319688E001900D92815044
:100BB000E1F728960FB6F894DEBF0FBECDBFCF91F8
:100BC000DF910895CF93DF93DC01EB01FB013297B6
:100BD0008D919C9111979383828312968C91129799
:100BE0008A8317968C9117978F8315968C911597FA
:100BF0008D8318968C911897888716968C911697E6
:100C00008E8313968C9113978B8314968C911497E3
:100C10008C83CD91DC912B81888190E0A0E0B0E0C5
:100C2000B82FAA2799278827820F911DA11DB11DD2
:100C3000298130E040E050E0A90133272227820FCC
:100C4000931FA41FB51F3A8120E040E050E0820FBF
:100C5000931FA41FB51F83879487A587B6878C81B0
:100C600090E0A0E0B0E0B82FAA27992788272D812F
:100C700030E040E050E0A90133272227820F931F84
:100C8000A41FB51F2F81820F911DA11DB11D3E8193
:100C900020E040E050E0820F931FA41FB51F87871C
:100CA000908BA18BB28BDF91CF9108950F931F93FF
:100CB000CF93DF93EB01DC0112960D911C911397FA
:100CC000ED91FC910280F381E02D0995C00FD11FB9
:100CD000C80FD11D8881DF91CF911F910F91089589
:100CE000FC011286118614861586178210861582DD
:100CF0000E9691838083E458FF4F80E396E09183C2
:100D000080830895FC01E458FF4F71836083089548
:100D1000FC01E458FF4F80819181DC01ED91FC9151
:100D20000480F581E02D099521E0009709F420E089
:100D3000822F0895FC01E458FF4F80819181DC01EE
:100D4000ED91FC910680F781E02D09950895FC0155
:100D5000E458FF4F80819181DC01ED91FC91028488
:100D6000F385E02D09950895FC01E458FF4FA0811B
:100D7000B181ED91FC9111970190F081E02DCD01B1
:100D8000099508950895DF92EF92FF920F931F93B4
:100D9000CF93DF93EC018F81882321F4888588230A
:100DA00009F474C01A8619861F8218861D821A8259
:100DB0001B821C821E826AC0CE010E949A068B870B
:100DC0009A85992399F08E3711F483E03AC08D37D4
:100DD00069F4CE010E948806882331F0CE010E947A
:100DE0009A0681278B8702C0098758C08985882386
:100DF00021F08B8581278B8719864A85433020F027
:100E00008C859B85890F8C87413061F0413028F0BB
:100E1000423061F0433091F40DC08B858E37F1F58F
:100E20000A873CC08B858B83DA8638C08B858C83A0
:100E3000EA8634C08B858A83FA8630C04F3618F034
:100E400082E0888731C0242F30E08C8190E00396C7
:100E50002817390781F48C858F3F31F48B858D837A
:100E600081E08F83188602C081E0888744504E83DA
:100E70001A861C8619C0E881F981E20FF31F3497A6
:100E80008B8580838A858F5F8A8708C0A2E0DA2EEF
:100E900001E0F3E0EF2EE4E0FE2E10E2CE010E942E
:100EA0008806882309F088CFDF91CF911F910F9199
:100EB000FF90EF90DF9008950F931F93FC01408304
:100EC00051836283738304831583268337831F9141
:100ED0000F910895CF93DF93FC0180E1828381E03D
:100EE000838355834483268384E191E091838083C7
:100EF000EF012796862F972FDC0188E00D9009924D
:100F00008150E1F78EEF9FEF908B8787118A128ACD
:100F1000DF91CF9108951F93CF93DF93EC01162FAC
:100F2000442381F0862F8D57823020F0613111F0FB
:100F3000633141F4CE016DE70E94B40660E261279F
:100F4000CE0102C0CE01612F0E94B406DF91CF9185
:100F50001F910895DF92EF92FF920F931F93CF930B
:100F6000DF938C01EB016EE740E00E948B07E88184
:100F7000F9810280F381E02DCE010995D82EE88118
:100F8000F9810280F381E02DCE010995E82E2D2D07
:100F900030E02E5F3F4FC801632F41E00E948B0776
:100FA0006E2D6E5FC80141E00E948B07C8016A8107
:100FB00041E00E948B07C8016B8141E00E948B07D2
:100FC000DB808A81D80EEE24FF2419C0E881F981E4
:100FD0000190F081E02DCE016E2D0995682FC8019A
:100FE00041E00E948B07E881F9810190F081E02DBA
:100FF000CE016E2D0995D80E0894E11CF11CE881F4
:10100000F9810280F381E02DCE01099590E0E81688
:10101000F906E4F26D2D6095C80141E00E948B074E
:10102000C8010E94A706DF91CF911F910F91FF90F9
:10103000EF90DF90089510924F0610925006109294
:101040005106109252068FEF9FEFA0E0B0E0809320
:10105000530690935406A0935506B09356060895F0
:101060001F920F920FB60F9211242F933F938F93DD
:101070009F93AF93BF9380915B0690915C06A09184
:101080005D06B0915E0630915F060196A11DB11D0F
:10109000232F2D5F2D3720F02D570196A11DB11D57
:1010A00020935F0680935B0690935C06A0935D0699
:1010B000B0935E068091570690915806A09159060C
:1010C000B0915A060196A11DB11D809357069093C9
:1010D0005806A0935906B0935A06BF91AF919F91BD
:1010E0008F913F912F910F900FBE0F901F901895E9
:1010F000789484B5826084BD84B5816084BD85B5F3
:10110000826085BD85B5816085BDEEE6F0E08081B9
:1011100081608083E1E8F0E01082808182608083DA
:10112000808181608083E0E8F0E08081816080835D
:10113000E1EBF0E0808184608083E0EBF0E080818F
:1011400081608083EAE7F0E0808184608083808131
:1011500082608083808181608083808180688083D9
:101160001092C100089597FB092E07260AD077FD3B
:1011700004D02ED006D000201AF4709561957F4FD0
:101180000895F6F7909581959F4F0895A1E21A2E44
:10119000AA1BBB1BFD010DC0AA1FBB1FEE1FFF1F1B
:1011A000A217B307E407F50720F0A21BB30BE40B6B
:1011B000F50B661F771F881F991F1A9469F76095B2
:1011C0007095809590959B01AC01BD01CF0108956C
:1011D000AA1BBB1B51E107C0AA1FBB1FA617B7075D
:1011E00010F0A61BB70B881F991F5A95A9F7809579
:1011F0009095BC01CD010895EE0FFF1F0590F4916D
:08120000E02D0994F894FFCFE2
:10120800000000009D033305380367034B0389037F
:10121800000000007805B105000000005D056D05BF
:02122800760549
:00000001FF
