:100000000C9464000C948C000C948C000C948C0068
:100010000C948C000C948C000C948C000C948C0030
:100020000C948C000C948C000C948C000C948C0020
:100030000C948C000C948C000C948C000C948C0010
:100040000C9412080C948C000C94D8030C940904A2
:100050000C948C000C948C000C948C000C948C00F0
:100060000C948C000C948C000000000024002700ED
:100070002A0000000000250028002B0000000000DE
:1000800023002600290004040404040404040202DA
:100090000202020203030303030301020408102007
:1000A0004080010204081020010204081020000012
:1000B0000007000201000003040600000000000029
:1000C00000008602CE04FD0711241FBECFEFD8E04A
:1000D000DEBFCDBF11E0A0E0B1E0ECECF1E102C089
:1000E00005900D92A232B107D9F716E0A2E2B1E075
:1000F00001C01D92AB36B107E1F710E0C8ECD0E0CB
:1001000004C02297FE010E94E008C23CD107C9F753
:100110000E940B050C94E4080C940000FC018481FF
:100120009581009741F481E02681378121153105C1
:1001300019F080E0089580E008958F929F92AF9229
:10014000BF92CF92DF92EF92FF920F931F93DF93B4
:10015000CF93CDB7DEB7A0970FB6F894DEBF0FBE32
:10016000CDBF4E010894811C911CE5E0D4011D9285
:10017000EA95E9F7E1E0E9835A834B833C832D83D9
:1001800026E0A22EB12CAC0EBD1E6C01EE24FF2485
:100190008B0120E030E0C501B701A6010E943E07B7
:1001A0008E01025F1F4FC801B501A40125E00E9426
:1001B0004C0782E291E0B8010E948C07A0960FB62E
:1001C000F894DEBF0FBECDBFCF91DF911F910F918D
:1001D000FF90EF90DF90CF90BF90AF909F908F9067
:1001E0000895CF92DF92EF92FF920F931F93CF93D8
:1001F000DF937C016B0184E0E816F10480F1CCEB25
:10020000D1E000E010E088819981009741F18E15DE
:100210009F05F9F4C801880F991F980143E0220F48
:10022000331F4A95E1F7820F931F84549E4F0E941B
:100230008E00882331F088859985B6010E94F100EF
:1002400008C06C817D818E819F81A70196010E94EB
:100250009D000F5F1F4F2A9604361105A1F6DF910E
:10026000CF911F910F91FF90EF90DF90CF90089565
:10027000CF93DF93CBE3D6E0CE0140E855E260E0D8
:1002800070E00E94500482E291E0BE010E94640688
:1002900080E090E06FEF7FEF40E050E024E332E158
:1002A0000E949D0081E060E00E94D10282E060E057
:1002B0000E94D10283E060E00E94D10284E060E00D
:1002C0000E94D10285E060E00E94D10286E060E0F9
:1002D0000E94D10287E060E00E94D10288E060E0E5
:1002E0000E94D10289E060E00E94D1028AE060E0D1
:1002F0000E94D1028BE060E00E94D1028CE060E0BD
:100300000E94D1028DE060E00E94D102DF91CF9186
:100310000895FF920F931F9389EA91E061E070E0E6
:100320000E943806853091F589EA91E062E070E03C
:100330000E943806F82E89EA91E063E070E00E949E
:100340003806082F89EA91E064E070E00E943806E0
:10035000182F89EA91E065E070E00E9438064F2D81
:1003600050E0202F30E0285F3F4F612F70E090E099
:10037000089602C0660F771F8A95E2F7CA0102C08D
:10038000880F991F2A95E2F70E94F1001F910F91A3
:10039000FF90089582E291E00E94A50682E291E03A
:1003A0000E94A4060E94A005882391F082E291E0B9
:1003B0000E94A4060E949D05803951F482E291E0DA
:1003C0000E94A4066BEA71E00E94C4050E948901A4
:1003D00081E00E94F50221E0009709F420E02093DB
:1003E000A40582E00E94F50221E0009709F420E0D4
:1003F0002093A50583E00E94F50221E0009709F40F
:1004000020E02093A60584E00E94F50221E00097F9
:1004100009F420E02093A70585E00E94F50221E081
:10042000009709F420E02093A80586E00E94F502D9
:1004300021E0009709F420E02093A90587E00E94BD
:10044000F50221E0009709F420E02093AA0588E056
:100450000E94F50221E0009709F420E02093AB050B
:1004600089E00E94F50221E0009709F420E0209342
:10047000AC058AE00E94F50221E0009709F420E033
:100480002093AD058BE00E94F50221E0009709F46E
:1004900020E02093AE058CE00E94F50221E0009759
:1004A00009F420E02093AF058DE00E94F50221E0E1
:1004B000009709F420E02093B0058091A505909164
:1004C000B105891771F08093B105882351F080E060
:1004D00090E06FEF7FEF42E050E024E332E10E94D2
:1004E0009D008091AF059091B205891771F08093BE
:1004F000B205882351F080E090E06FEF7FEF4CE091
:1005000050E024E332E10E949D00089582E291E0F0
:100510000E94520680EA91E00E949C0589EA91E0DF
:100520000E94A305ECEBF1E011821082138212828B
:100530001582148217821682118610863A9685E0FB
:10054000E43AF80789F70895833071F0843028F48D
:100550008130A1F0823021F514C08630B1F08730AF
:10056000D1F08430E9F404C0809180008F7703C01B
:10057000809180008F7D80938000089584B58F776F
:1005800002C084B58F7D84BD08958091B0008F77BF
:100590008093B00008958091B0008F7D8093B0006B
:1005A000089590E0FC01E656FF4F2491FC01EA57C4
:1005B000FF4FE491EE23C1F0F0E0EE0FFF1FE8598A
:1005C000FF4F85919491DC01662341F49FB7F89425
:1005D0008C91209582238C939FBF08959FB7F894A8
:1005E0008C91822B8C939FBF08950F931F93282F7C
:1005F00030E0F901E255FF4F8491F901E656FF4FD3
:1006000004912A573F4FF9011491112391F0882347
:1006100011F00E94A402E12FF0E0EE0FFF1FE4585A
:10062000FF4F85919491DC018C91802321E030E093
:1006300011F420E030E0C9011F910F910895FC01F1
:1006400084859585FC01E05CFF4F208131818E5BC4
:100650009F4FFC0180819181281B390B2F733070D3
:10066000C9010895FC0184859585FC01E05CFF4F7C
:1006700040815181FC01EE5BFF4F208131814217A7
:10068000530741F00190F081E02DE80FF91F208120
:1006900030E002C02FEF3FEFC9010895FC018485CF
:1006A0009585FC01E05CFF4F40815181FC01EE5BD0
:1006B000FF4F208131814217530771F0A081B18132
:1006C000A80FB91F2C918081918101968F73907032
:1006D0009183808330E002C02FEF3FEFC90108957E
:1006E000DC011E968D919C911F97FC01E05CFF4FF1
:1006F0008E5B9F4F40815181DC012D913C91119780
:1007000042175307B9F708951F93FC01162F26854A
:100710003785D901A05CBF4F8D919C91019660E413
:1007200070E00E949508D901AE5BBF4F4D915C917E
:10073000119784179507D1F3D901A05CBF4F0D9095
:10074000BC91A02DA20FB31F1C93A685B785A05CFA
:10075000BF4F11969C938E93A689B7892C9181E007
:1007600090E0058C02C0880F991F0A94E2F7282BAD
:100770002C9381E090E01F910895FB01E05CFF4F16
:10078000208131812F5F3F4F2F733070DB01AE5BD3
:10079000BF4F4D915C9111972417350739F0A08117
:1007A000B181A60FB71F8C933183208308950895DC
:1007B0001F920F920FB60F9211242F933F934F93D6
:1007C0005F936F937F938F939F93AF93BF93EF93B9
:1007D000FF938091C60063EB75E00E94BD03FF911B
:1007E000EF91BF91AF919F918F917F916F915F91A9
:1007F0004F913F912F910F900FBE0F901F90189522
:100800008BE396E00E941F03009711F00E94D7032C
:1008100008951F920F920FB60F9211242F933F93BA
:100820005F936F937F938F939F93AF93BF93EF9358
:10083000FF932091370630913806809139069091C8
:100840003A062817390731F48091C1008F7D8093D3
:10085000C10016C0E0913906F0913A06E950FA4F0E
:1008600020818091390690913A06019660E470E00B
:100870000E94950890933A06809339062093C6000B
:10088000FF91EF91BF91AF919F918F917F916F9168
:100890005F913F912F910F900FBE0F901F90189571
:1008A000DF92EF92FF920F931F93CF93DF93EC01B0
:1008B0007A018B01DD24D394403081EE580780E02B
:1008C000680780E0780749F4DD24EC89FD8910820F
:1008D00060E874E88EE190E00FC0EC89FD8981E06A
:1008E00090E00E8C02C0880F991F0A94E2F7808373
:1008F00060E079E08DE390E0A80197010E94A808EC
:1009000021503040404050405695479537952795A7
:1009100080E12030380710F0DD20B1F6E889F98950
:100920003083EA89FB892083EE89FF89408181E059
:1009300090E09C010A8C02C0220F331F0A94E2F758
:10094000422B4083EE89FF8940819C010B8C02C0C1
:10095000220F331F0A94E2F7422B4083EE89FF896E
:1009600040819C010C8C02C0220F331F0A94E2F7D5
:10097000422B4083EE89FF8920810D8C02C0880FB5
:10098000991F0A94E2F7809582238083DF91CF91AB
:100990001F910F91FF90EF90DF90089510923E0607
:1009A00010923D0688EE93E0A0E0B0E080933F0611
:1009B00090934006A0934106B0934206EDE3F6E023
:1009C00084E091E09293829383EB95E0958784870E
:1009D00087EF95E09787868785EC90E0918B808BF9
:1009E00084EC90E0938B828B80EC90E0958B848BF1
:1009F00081EC90E0978B868B86EC90E0918F808FD6
:100A000084E0828F83E0838F87E0848F85E0858F09
:100A100081E0868F0895CF93DF930E945A080E9449
:100A20003801C0E0D4E00E94CA012097E1F30E949F
:100A30000004F9CFCF92DF92EF92FF920F931F93B2
:100A4000CF93DF936C017B018A01C0E0D0E00FC03F
:100A5000D7016D917D01D601ED91FC910190F0815E
:100A6000E02DC6010995C80FD91F0150104001158E
:100A7000110571F7CE01DF91CF911F910F91FF907A
:100A8000EF90DF90CF9008951F93DC0116961C9194
:100A90001697ED91FC910280F381E02D099511509C
:100AA000181B812F1F910895DC01ED91FC910480AA
:100AB000F581E02D09958E5F089588E00895FC0189
:100AC000662311F482850895613011F481850895BB
:100AD000623011F480850895633011F487810895A0
:100AE000643011F486850895653011F48585089584
:100AF000663011F484850895673011F48385089574
:100B0000683011F480890895693011F4878508955B
:100B10006A3011F4818908956B3011F48289089547
:100B20000480F581E02DE60FF11D3C97808108954A
:100B3000FC018681845F08950895FC0182810895F7
:100B4000FC0187810895DF93CF93CDB7DEB7289757
:100B50000FB6F894DEBF0FBECDBFDC018CE191E093
:100B600011969C938E931B96FE01319688E001901E
:100B70000D928150E1F728960FB6F894DEBF0FBEB4
:100B8000CDBFCF91DF910895CF93DF93DC01EB01CF
:100B9000FB0132978D919C911197938382831296DA
:100BA0008C9112978A8317968C9117978F8315963D
:100BB0008C9115978D8318968C9118978887169627
:100BC0008C9116978E8313968C9113978B83149622
:100BD0008C9114978C83CD91DC912B81888190E04E
:100BE000A0E0B0E0B82FAA2799278827820F911D8F
:100BF000A11DB11D298130E040E050E0A90133275B
:100C00002227820F931FA41FB51F3A8120E040E0E6
:100C100050E0820F931FA41FB51F83879487A58779
:100C2000B6878C8190E0A0E0B0E0B82FAA27992782
:100C300088272D8130E040E050E0A90133272227AA
:100C4000820F931FA41FB51F2F81820F911DA11D1D
:100C5000B11D3E8120E040E050E0820F931FA41FB1
:100C6000B51F8787908BA18BB28BDF91CF910895B1
:100C70000F931F93CF93DF93EB01DC0112960D913D
:100C80001C911397ED91FC910280F381E02D099561
:100C9000C00FD11FC80FD11D8881DF91CF911F9147
:100CA0000F910895FC01128611861486158617820D
:100CB000108615820E9691838083E458FF4F8BE354
:100CC00096E0918380830895FC01E458FF4F71837F
:100CD00060830895FC01E458FF4F80819181DC011D
:100CE000ED91FC910480F581E02D099521E00097BC
:100CF00009F420E0822F0895FC01E458FF4F808121
:100D00009181DC01ED91FC910680F781E02D099540
:100D10000895FC01E458FF4F80819181DC01ED9141
:100D2000FC910284F385E02D09950895FC01E458B7
:100D3000FF4FA081B181ED91FC9111970190F0815D
:100D4000E02DCD01099508950895DF92EF92FF926D
:100D50000F931F93CF93DF93EC018F81882321F4AE
:100D60008885882309F474C01A8619861F8218861C
:100D70001D821A821B821C821E826AC0CE010E94C2
:100D80007C068B879A85992399F08E3711F483E03E
:100D90003AC08D3769F4CE010E946A06882331F08B
:100DA000CE010E947C0681278B8702C0098758C02C
:100DB0008985882321F08B8581278B8719864A8531
:100DC000433020F08C859B85890F8C87413061F002
:100DD000413028F0423061F0433091F40DC08B85F2
:100DE0008E37F1F50A873CC08B858B83DA8638C055
:100DF0008B858C83EA8634C08B858A83FA8630C0E3
:100E00004F3618F082E0888731C0242F30E08C8183
:100E100090E003962817390781F48C858F3F31F4D1
:100E20008B858D8381E08F83188602C081E088875F
:100E300044504E831A861C8619C0E881F981E20F5E
:100E4000F31F34978B8580838A858F5F8A8708C0DC
:100E5000A2E0DA2E01E0F3E0EF2EE4E0FE2E10E255
:100E6000CE010E946A06882309F088CFDF91CF91D6
:100E70001F910F91FF90EF90DF9008950F931F93B4
:100E8000FC0140835183628373830483158326832B
:100E900037831F910F910895CF93DF93FC0180E179
:100EA000828381E0838355834483268384E191E0B8
:100EB00091838083EF012796862F972FDC0188E0AE
:100EC0000D9009928150E1F78EEF9FEF908B87870D
:100ED000118A128ADF91CF9108951F93CF93DF93E8
:100EE000EC01162F442381F0862F8D57823020F09D
:100EF000613111F0633141F4CE016DE70E94960635
:100F000060E26127CE0102C0CE01612F0E949606E9
:100F1000DF91CF911F910895DF92EF92FF920F938F
:100F20001F93CF93DF938C01EB016EE740E00E94AB
:100F30006D07E881F9810280F381E02DCE010995EA
:100F4000D82EE881F9810280F381E02DCE01099548
:100F5000E82E2D2D30E02E5F3F4FC801632F41E07A
:100F60000E946D076E2D6E5FC80141E00E946D0703
:100F7000C8016A8141E00E946D07C8016B8141E0B0
:100F80000E946D07DB808A81D80EEE24FF2419C0F1
:100F9000E881F9810190F081E02DCE016E2D099557
:100FA000682FC80141E00E946D07E881F981019036
:100FB000F081E02DCE016E2D0995D80E0894E11C2C
:100FC000F11CE881F9810280F381E02DCE010995C1
:100FD00090E0E816F906E4F26D2D6095C80141E055
:100FE0000E946D07C8010E948906DF91CF911F9171
:100FF0000F91FF90EF90DF90089510925A06109293
:101000005B0610925C0610925D068FEF9FEFA0E0EA
:10101000B0E080935E0690935F06A0936006B09365
:10102000610608951F920F920FB60F9211242F930D
:101030003F938F939F93AF93BF9380916606909158
:101040006706A0916806B091690630916A0601961C
:10105000A11DB11D232F2D5F2D3720F02D57019697
:10106000A11DB11D20936A068093660690936706C2
:10107000A0936806B093690680916206909163061A
:10108000A0916406B09165060196A11DB11D8093E3
:10109000620690936306A0936406B0936506BF91C1
:1010A000AF919F918F913F912F910F900FBE0F9015
:1010B0001F901895789484B5826084BD84B5816052
:1010C00084BD85B5826085BD85B5816085BDEEE650
:1010D000F0E0808181608083E1E8F0E0108280812F
:1010E00082608083808181608083E0E8F0E080819D
:1010F00081608083E1EBF0E0808184608083E0EBBD
:10110000F0E0808181608083EAE7F0E080818460A4
:101110008083808182608083808181608083808100
:10112000806880831092C100089597FB092E0726DE
:101130000AD077FD04D02ED006D000201AF4709586
:1011400061957F4F0895F6F7909581959F4F08958B
:10115000A1E21A2EAA1BBB1BFD010DC0AA1FBB1FBB
:10116000EE1FFF1FA217B307E407F50720F0A21B2D
:10117000B30BE40BF50B661F771F881F991F1A949A
:1011800069F760957095809590959B01AC01BD01C4
:10119000CF010895AA1BBB1B51E107C0AA1FBB1FAB
:1011A000A617B70710F0A61BB70B881F991F5A95F3
:1011B000A9F780959095BC01CD010895EE0FFF1F12
:0C11C0000590F491E02D0994F894FFCF05
:1011CC000000000084031A051F034E033203700352
:1011DC00000000005F059805000000004405540560
:0211EC005D059F
:00000001FF
