:100000000C9465000C947D040C94AA040C948D004F
:100010000C948D000C948D000C948D000C940D0BA1
:100020000C948D000C948D000C948D000C948D001C
:100030000C948D000C948D000C948D000C948D000C
:100040000C9437050C948D000C945A070C948B0774
:100050000C948D000C948D000C948D000C948D00EC
:100060000C948D000C948D000000000024002700EB
:100070002A0000000000250028002B0000000000DE
:1000800023002600290004040404040404040202DA
:100090000202020203030303030301020408102007
:1000A0004080010204081020010204081020000012
:1000B0000007000201000003040600000000000029
:1000C000000002005F045008270E11241FBECFEF6E
:1000D000D8E0DEBFCDBF11E0A0E0B1E0E6EAFDE18F
:1000E00002C005900D92A632B107D9F716E0A6E23C
:1000F000B1E001C01D92A03AB107E1F710E0CAECEF
:10010000D0E004C02297FE010E94CD0EC43CD1076E
:10011000C9F70E948D080C94D10E0C940000FC01CC
:1001200084819581009741F481E0268137812115F2
:10013000310519F080E0089580E008958F929F9234
:10014000AF92BF92CF92DF92EF92FF920F931F93E5
:10015000DF93CF93CDB7DEB7A0970FB6F894DEBF8D
:100160000FBECDBF4E010894811C911CE5E0D40167
:100170001D92EA95E9F7E1E0E9835A834B833C83DA
:100180002D8326E0A22EB12CAC0EBD1E6C01EE24F8
:10019000FF248B0120E030E0C501B701A6010E94D9
:1001A000680D8E01025F1F4FC801B501A40125E053
:1001B0000E94760D86E291E0B8010E94B60DA096ED
:1001C0000FB6F894DEBF0FBECDBFCF91DF911F9168
:1001D0000F91FF90EF90DF90CF90BF90AF909F90E6
:1001E0008F900895CF93DF9383E161E00E941B0617
:1001F00088E061E00E941B0689E060E00E941B0627
:1002000082E060E00E941B0683E061E00E941B0622
:1002100086E061E00E941B0685E061E00E941B060B
:1002200086E061E00E943F06C4E6D6E0CE0140E8E9
:1002300055E260E070E00E94D20786E291E0BE01E4
:100240000E948E0C1092D7011092D6011092E301F9
:1002500081E08093E4018EEE92E09093E60180933A
:10026000E5011092C30184E18093C4018093C5012C
:10027000DF91CF91089590E09C01220F331F220F50
:10028000331F20503C4F8095909583709070280FBD
:10029000391FC9010895CF92DF92EF92FF920F9319
:1002A0001F93CF93DF93EC016B018130910561F0D7
:1002B0008130910508F48EC08230910591F0833031
:1002C000910509F051C02DC08FEF8093C80180E0E7
:1002D00090E06FEF7FEF41E050E096010E949E00BA
:1002E00079C0809101010E943B019093E1018093CC
:1002F000E00181E08093E20184E690E0A0E0B0E0DC
:100300008093D1019093D201A093D301B093D401F3
:100310001092CD011092CE011092CF011092D00117
:1003200059C00E947F056854744F8F4F9F4F609350
:10033000D8017093D9018093DA019093DB010E9478
:100340007F056059784E8F4F9F4F6093DC0170930B
:10035000DD018093DE019093DF018FEF8093C60172
:100360008093C7018093C80107EE11E0EE24FF24BB
:10037000F80180819181009769F18C179D0709F53B
:10038000C701880F991F970153E0220F331F5A9519
:10039000E1F7820F931F89519E4F0E948F0088239F
:1003A00039F0F80180859185B6010E944B0109C0A2
:1003B000F8016481758186819781AE0196010E9462
:1003C0009E000894E11CF11C065F1F4FF4E6EF1637
:1003D000F10471F6DF91CF911F910F91FF90EF9093
:1003E000DF90CF9008950F931F93DF93CF93CDB7F6
:1003F000DEB76E970FB6F894DEBF0FBECDBF2F8B62
:10040000388F498F5A8F6B8F7C8F8D8F9E8FAE0167
:100410004F5F5F4F83E0FA0111928A95E9F71A83E3
:100420000B838E010C5F1F4FC801BE01695E7F4FB9
:1004300023E00E94760D86E291E0B8010E94B60D9D
:100440006E960FB6F894DEBF0FBECDBFCF91DF9191
:100450001F910F910895EF92FF920F931F93DF93D7
:10046000CF93CDB7DEB7A1970FB6F894DEBF0FBE1E
:10047000CDBF2A8F3B8F4C8F5D8F6E8F7F8F88A370
:1004800099A37E010894E11CF11C86E0F70111920A
:100490008A95E9F70DEA11E0C80160E070E00E947A
:1004A000620C8A83C80161E070E00E94620C8B8359
:1004B000C80162E070E00E94620C8C83C80163E0B6
:1004C00070E00E94620C8D83C80164E070E00E94BD
:1004D000620C8E838E01095F1F4FC801BE01665EEC
:1004E0007F4FA70126E00E94760D86E291E0B801D9
:1004F0000E94B60DA1960FB6F894DEBF0FBECDBF19
:10050000CF91DF911F910F91FF90EF900895FF928F
:100510000F931F938DEA91E061E070E00E94620CFE
:10052000182F813011F1813020F08F3F09F062C027
:100530004FC01092C0018FEF8093C1011092C20191
:1005400081E0809300018DEA91E00E94C80BFC01DC
:1005500020813181428153816481758186819781B7
:1005600003E010E00E94F30154C08DEA91E062E0E4
:1005700070E00E94620CF82E8DEA91E063E070E07A
:100580000E94620C082F8DEA91E064E070E00E9406
:10059000620C182F8DEA91E065E070E00E94620C19
:1005A0004F2D50E0202F30E0285F3F4F612F70E04B
:1005B00090E0089602C0660F771F8A95E2F7CA019D
:1005C00002C0880F991F2A95E2F70E944B0121C0B3
:1005D00088E068EB71E024EF31E040E050E00E94F9
:1005E000C608109200011093C6011093C701109223
:1005F000C8010FC08DEA91E00E94C80BFC01208168
:1006000031814281538164817581868197810E9405
:100610002B021F910F91FF900895EF92FF920F937D
:100620001F9380910001882309F477C0E090D801DE
:10063000F090D9010091DA011091DB010E947F0551
:100640006E157F058007910738F41092C001109253
:10065000C1011092C2012DC0E090DC01F090DD01DB
:100660000091DE011091DF010E947F055091C301CE
:100670004091C4013091C5016E157F058007910737
:1006800090F425E0852F622F0E945B0E8093C001BD
:10069000842F0E945B0E8093C101832F0E945B0E0A
:1006A0008093C20106C05093C0014093C1013093B2
:1006B000C2018091C6019091C001891769F0891724
:1006C00010F48F5F01C081508093C6016091C60114
:1006D00083E070E00E94D7048091C7019091C1012E
:1006E000891769F0891710F48F5F01C081508093DA
:1006F000C7016091C70186E070E00E94D704809135
:10070000C8019091C201891721F1891710F48F5FF8
:1007100001C081508093C80116C06091C6016D5F11
:100720006093C6018091C7018D5F8093C7011092CD
:10073000C80183E070E00E94D7046091C70186E0A1
:1007400070E00E94D7046091C80185E070E00E94CB
:10075000D7041F910F91FF90EF90089586E00E94BB
:10076000770661E0009709F060E086E00E943F06AE
:1007700086E291E00E94CF0C86E291E00E94CE0CCE
:100780000E94C50B882391F086E291E00E94CE0C76
:100790000E94C20B803951F486E291E00E94CE0C97
:1007A0006FEA71E00E94EE0B0E9487020E947F05B3
:1007B0009B01AC018091C9019091CA01A091CB012C
:1007C000B091CC0182179307A407B50780F40E946B
:1007D0007F056B5F7F4F8F4F9F4F6093C901709371
:1007E000CA018093CB019093CC010E940D038091AC
:1007F000D1019091D201A091D301B091D401009781
:10080000A105B10509F45AC00E948D059B01AC01F8
:100810008091CD019091CE01A091CF01B091D001F6
:1008200082179307A407B50708F048C00E948D05FA
:100830002091D1013091D2014091D3015091D40146
:10084000620F731F841F951F6093CD017093CE01BB
:100850008093CF019093D00161E08091D501811107
:1008600060E06093D50188E00E943F068091D1014D
:100870009091D201A091D301B091D401883E23E0A0
:10088000920720E0A20720E0B20760F40296A11DC3
:10089000B11D8093D1019093D201A093D301B09365
:1008A000D40108951092D1011092D2011092D30177
:1008B0001092D40188E060E00E943F06089586E22D
:1008C00091E00E947C0C84EA91E00E94C10B8DEAC9
:1008D00091E00E94CD0BE7EEF1E0118210821382CD
:1008E00012821582148217821682118610863A9619
:1008F00085E0EF3CF80789F708951F920F920FB635
:100900000F9211242F933F934F935F936F937F9395
:100910008F939F93AF93BF93EF93FF938091CF05F6
:100920009091D005009729F0E091CF05F091D00586
:100930000995FF91EF91BF91AF919F918F917F9119
:100940006F915F914F913F912F910F900FBE0F903C
:100950001F9018951F920F920FB60F9211242F938C
:100960003F934F935F936F937F938F939F93AF9337
:10097000BF93EF93FF938091D1059091D20500979B
:1009800029F0E091D105F091D2050995FF91EF9101
:10099000BF91AF919F918F917F916F915F914F9197
:1009A0003F912F910F900FBE0F901F9018951F939E
:1009B000CF93DF93182FEB0161E00E941B06209775
:1009C00009F44AC0CF3FD10509F449C0E12FF0E056
:1009D000E255FF4FE491E330C1F0E43028F4E13018
:1009E00051F0E230B1F50CC0E63019F1E73049F1D1
:1009F000E43079F514C084B5806884BDC7BD33C0C8
:100A000084B5806284BDC8BD2EC08091800080689E
:100A100080938000D0938900C093880024C0809187
:100A20008000806280938000D0938B00C0938A0006
:100A30001AC08091B00080688093B000C093B3006A
:100A400012C08091B00080628093B000C093B40067
:100A50000AC0C038D1051CF4812F60E002C0812F8C
:100A600061E00E943F06DF91CF911F9108951F9290
:100A70000F920FB60F9211242F933F938F939F9352
:100A8000AF93BF938091D7059091D805A091D905D8
:100A9000B091DA053091DB050196A11DB11D232F20
:100AA0002D5F2D3720F02D570196A11DB11D2093EC
:100AB000DB058093D7059093D805A093D905B09313
:100AC000DA058091D3059091D405A091D505B09118
:100AD000D6050196A11DB11D8093D3059093D40531
:100AE000A093D505B093D605BF91AF919F918F91FB
:100AF0003F912F910F900FBE0F901F9018958FB7B9
:100B0000F8942091D7053091D8054091D90550919E
:100B1000DA058FBFB901CA0108959FB7F8942091F3
:100B2000D3053091D4054091D5055091D60586B5B1
:100B3000A89B06C08F3F21F02F5F3F4F4F4F5F4F65
:100B40009FBF542F432F322F2227280F311D411DC5
:100B5000511D82E0220F331F441F551F8A95D1F784
:100B6000B901CA010895789484B5826084BD84B5C2
:100B7000816084BD85B5826085BD85B5816085BD98
:100B8000EEE6F0E0808181608083E1E8F0E01082B1
:100B9000808182608083808181608083E0E8F0E0F2
:100BA000808181608083E1EBF0E0808184608083DC
:100BB000E0EBF0E0808181608083EAE7F0E0808113
:100BC0008460808380818260808380818160808373
:100BD0008081806880831092C1000895833071F015
:100BE000843028F48130A1F0823021F514C08630A1
:100BF000B1F08730D1F08430E9F404C080918000F6
:100C00008F7703C0809180008F7D8093800008954E
:100C100084B58F7702C084B58F7D84BD089580919F
:100C2000B0008F778093B00008958091B0008F7DE1
:100C30008093B000089590E0FC01E656FF4F2491A8
:100C4000FC01EA57FF4FE491EE23C1F0F0E0EE0F14
:100C5000FF1FE859FF4F85919491DC01662341F411
:100C60009FB7F8948C91209582238C939FBF089511
:100C70009FB7F8948C91822B8C939FBF08950F930C
:100C80001F93DF93CF930F92CDB7DEB7282F30E0BD
:100C9000F901E255FF4F8491F901E656FF4F149197
:100CA0002A573F4FF90104910023D9F0882321F0FE
:100CB00069830E94EE056981E02FF0E0EE0FFF1FCF
:100CC000EE58FF4F85919491DC019FB7F89466230D
:100CD00021F48C911095812302C08C91812B8C93EF
:100CE0009FBF0F90CF91DF911F910F9108950F93A8
:100CF0001F93282F30E0F901E255FF4F8491F9014D
:100D0000E656FF4F04912A573F4FF90114911123E2
:100D100091F0882311F00E94EE05E12FF0E0EE0F34
:100D2000FF1FE458FF4F85919491DC018C91802343
:100D300021E030E011F420E030E0C9011F910F9173
:100D40000895FC0184859585FC01E05CFF4F2081BE
:100D500031818E5B9F4FFC0180819181281B390B73
:100D60002F733070C9010895FC0184859585FC01BD
:100D7000E05CFF4F40815181FC01EE5BFF4F208121
:100D800031814217530741F00190F081E02DE80FC7
:100D9000F91F208130E002C02FEF3FEFC901089515
:100DA000FC0184859585FC01E05CFF4F4081518109
:100DB000FC01EE5BFF4F208131814217530771F038
:100DC000A081B181A80FB91F2C91808191810196DA
:100DD0008F7390709183808330E002C02FEF3FEFDC
:100DE000C9010895DC011E968D919C911F97FC010D
:100DF000E05CFF4F8E5B9F4F40815181DC012D9164
:100E00003C91119742175307B9F708951F93FC01BE
:100E1000162F26853785D901A05CBF4F8D919C91F7
:100E2000019660E470E00E94670ED901AE5BBF4F8F
:100E30004D915C91119784179507D1F3D901A05C6E
:100E4000BF4F0D90BC91A02DA20FB31F1C93A68580
:100E5000B785A05CBF4F11969C938E93A689B789E6
:100E60002C9181E090E0058C02C0880F991F0A94B4
:100E7000E2F7282B2C9381E090E01F910895FB016D
:100E8000E05CFF4F208131812F5F3F4F2F73307027
:100E9000DB01AE5BBF4F4D915C9111972417350775
:100EA00039F0A081B181A60FB71F8C9331832083C5
:100EB000089508951F920F920FB60F9211242F9349
:100EC0003F934F935F936F937F938F939F93AF93D2
:100ED000BF93EF93FF938091C6006CED75E00E9485
:100EE0003F07FF91EF91BF91AF919F918F917F91BC
:100EF0006F915F914F913F912F910F900FBE0F9087
:100F00001F90189584E696E00E94A106009711F0C4
:100F10000E94590708951F920F920FB60F92112445
:100F20002F933F935F936F937F938F939F93AF9391
:100F3000BF93EF93FF9320916006309161068091FB
:100F40006206909163062817390731F48091C10039
:100F50008F7D8093C10016C0E0916206F091630618
:100F6000E05EF94F208180916206909163060196C0
:100F700060E470E00E94670E9093630680936206BF
:100F80002093C600FF91EF91BF91AF919F918F91F8
:100F90007F916F915F913F912F910F900FBE0F90B6
:100FA0001F901895DF92EF92FF920F931F93CF93AC
:100FB000DF93EC017A018B01DD24D394403081EE84
:100FC000580780E0680780E0780749F4DD24EC8961
:100FD000FD89108260E874E88EE190E00FC0EC8932
:100FE000FD8981E090E00E8C02C0880F991F0A9461
:100FF000E2F7808360E079E08DE390E0A80197015B
:101000000E947A0E215030404040504056954795FE
:101010003795279580E12030380710F0DD20B1F6B4
:10102000E889F9893083EA89FB892083EE89FF8981
:10103000408181E090E09C010A8C02C0220F331FA6
:101040000A94E2F7422B4083EE89FF8940819C019C
:101050000B8C02C0220F331F0A94E2F7422B40830D
:10106000EE89FF8940819C010C8C02C0220F331F46
:101070000A94E2F7422B4083EE89FF8920810D8C90
:1010800002C0880F991F0A94E2F78095822380831B
:10109000DF91CF911F910F91FF90EF90DF90089516
:1010A000109267061092660688EE93E0A0E0B0E02A
:1010B0008093680690936906A0936A06B0936B06C6
:1010C000E6E6F6E087E091E0929382938CED95E07E
:1010D0009587848780E296E09787868785EC90E005
:1010E000918B808B84EC90E0938B828B80EC90E0F2
:1010F000958B848B81EC90E0978B868B86EC90E0CF
:10110000918F808F84E0828F83E0838F87E0848F4C
:1011100085E0858F81E0868F0895CF93DF930E94CD
:10112000B3050E94F200C2E8D7E00E94AE03209708
:10113000E1F30E948207F9CFCF92DF92EF92FF9204
:101140000F931F93CF93DF936C017B018A01C0E063
:10115000D0E00FC0D7016D917D01D601ED91FC91DA
:101160000190F081E02DC6010995C80FD91F0150EB
:1011700010400115110571F7CE01DF91CF911F913C
:101180000F91FF90EF90DF90CF9008952F923F92B4
:101190004F925F926F927F928F929F92AF92BF9287
:1011A000DF92EF92FF920F931F93DF93CF9300D0C4
:1011B00000D0CDB7DEB71B0129833A834B835C8314
:1011C00090910201981721F09F3F09F0D9C104C006
:1011D000E2ECF0E0D4907DC080930201E2ECF0E01C
:1011E000D4909D2D9F3F09F4CBC1913031F19230C5
:1011F00009F449C0DD2009F06CC014BC15BC94B5DD
:10120000926094BD95B5916095BD282F30E0F901AD
:10121000EA57FF4FE491F0E0EE0FFF1FEE58FF4F4B
:1012200045915491409387065093880626563F4F28
:10123000F9012491209389064EC0109280001092EB
:10124000810090918100986090938100909181003D
:10125000916090938100282F30E0F901EA57FF4F09
:10126000E491F0E0EE0FFF1FEE58FF4F45915491CF
:1012700040938E0650938F0626563F4FF9012491D6
:101280002093900628C01092B0001092B100909167
:10129000B00092609093B0009091B10091609093F3
:1012A000B100282F30E0F901EA57FF4FE491F0E058
:1012B000EE0FFF1FEE58FF4F459154914093950656
:1012C0005093960626563F4FF90124912093970696
:1012D00002C0D7FC55C161E00E941B06DD2021F051
:1012E000FD2DF23009F0C1C04101AA24BB2460E009
:1012F00072E18AE790E0A50194010E949C0E290109
:101300003A0179018A010894E108F10801091109FB
:101310008FEFE816F1040105110509F008F498C0F3
:1013200060E472E48FE090E0A50194010E949C0EBD
:1013300079018A010894E108F108010911099D2D3C
:101340009230C9F4AFEFEA16F1040105110509F076
:1013500008F485C060E970ED83E090E0A501940198
:101360000E949C0E79018A010894E108F1080109A4
:10137000110983E001C082E0BFEFEB16F104010523
:10138000110509F008F465C068E478EE81E090E0AA
:10139000A50194010E949C0E79018A010894E1083C
:1013A000F10801091109DD20E1F0ED2DE230D9F459
:1013B000FFEFEF16F1040105110509F008F451C023
:1013C00064E274EF80E090E0A50194010E949C0E1D
:1013D00079018A010894E108F1080109110985E001
:1013E00003C083E001C084E09FEFE916F10401052A
:1013F000110579F170F162E17AE780E090E0A501F2
:1014000094010E949C0E79018A010894E108F10878
:1014100001091109DD2011F484E001C086E0AFEF7D
:10142000EA16F10401051105A1F098F0830172019B
:101430009AE015950795F794E7949A95D1F7089453
:10144000E108F10801091109DD2031F087E00AC047
:1014500081E0DD2011F006C085E085BD3CC082E062
:1014600001C084E08093B10036C04101AA24BB24AE
:1014700060E072E18AE790E0A50194010E949C0E71
:1014800079018A010894E108F10801091109B0E025
:10149000EB16B0E0FB06B1E00B07B0E01B0788F0ED
:1014A00068E478EE81E090E0A50194010E949C0E32
:1014B00079018A010894E108F1080109110993E012
:1014C00001C091E0ED2DE13031F480918100887F01
:1014D000892B8093810089819A81AB81BC8100979F
:1014E000A105B10591F0B101660F771F80E090E092
:1014F00029813A814B815C810E943C0E28EE33E0C9
:1015000040E050E00E947A0E04C02FEF3FEF4FEF13
:101510005FEF9D2D913099F0923019F1DD2081F52A
:10152000E7BC20938306309384064093850650934E
:10153000860680916E00826080936E0021C0F092DA
:101540008900E092880020938A0630938B064093AE
:101550008C0650938D0680916F00826080936F009F
:101560000FC0E092B300209391063093920640930F
:10157000930650939406809170008260809370006F
:101580000F900F900F900F90CF91DF911F910F91BF
:10159000FF90EF90DF90BF90AF909F908F907F90E3
:1015A0006F905F904F903F902F900895813041F061
:1015B000813018F08230D1F409C010926E00089585
:1015C00080916F008D7F80936F00089580917000EF
:1015D0008D7F8093700081E08093B0008091B10096
:1015E000887F84608093B1001092B30008951F93A8
:1015F000182F80910201811739F4E2ECF0E0849118
:101600009FEF9093020101C08FEF0E94D60A812FB5
:1016100060E00E943F061F9108951F920F920FB63F
:101620000F9211242F933F934F935F936F937F9368
:101630008F939F93AF93BF93EF93FF938091910606
:1016400090919206A0919306B09194060097A105FF
:10165000B10551F1E0919506F09196068081909147
:101660009706892780838091910690919206A09198
:101670009306B0919406181619061A061B06C4F4B0
:101680008091910690919206A0919306B091940654
:101690000197A109B1098093910690939206A093B6
:1016A0009306B093940604C0809102010E94F70A49
:1016B000FF91EF91BF91AF919F918F917F916F912A
:1016C0005F914F913F912F910F900FBE0F901F9000
:1016D00018951F93DC0116961C911697ED91FC91BD
:1016E0000280F381E02D09951150181B812F1F9165
:1016F0000895DC01ED91FC910480F581E02D0995C0
:101700008E5F089588E00895FC01662311F48285B8
:101710000895613011F481850895623011F4808557
:101720000895633011F487810895643011F486853B
:101730000895653011F485850895663011F4848527
:101740000895673011F483850895683011F4808915
:101750000895693011F4878508956A3011F48189FC
:1017600008956B3011F4828908950480F581E02D8D
:10177000E60FF11D3C9780810895FC018681845F0E
:1017800008950895FC0182810895FC0187810895E0
:101790009C01255F3F4FC9010895DF93CF93CDB7DB
:1017A000DEB728970FB6F894DEBF0FBECDBFDC01C1
:1017B0008FE191E011969C938E931B96FE013196DA
:1017C00088E001900D928150E1F728960FB6F894C9
:1017D000DEBF0FBECDBFCF91DF910895CF93DF93D2
:1017E000DC01EB01FB0132978D919C911197938362
:1017F000828312968C9112978A8317968C911797F1
:101800008F8315968C9115978D8318968C911897C8
:10181000888716968C9116978E8313968C911397C2
:101820008B8314968C9114978C83CD91DC912B81B2
:10183000888190E0A0E0B0E0B82FAA2799278827F8
:10184000820F911DA11DB11D298130E040E050E0C3
:10185000A90133272227820F931FA41FB51F3A81A6
:1018600020E040E050E0820F931FA41FB51F838744
:101870009487A587B6878C8190E0A0E0B0E0B82F70
:10188000AA27992788272D8130E040E050E0A90160
:1018900033272227820F931FA41FB51F2F81820F8A
:1018A000911DA11DB11D3E8120E040E050E0820F5E
:1018B000931FA41FB51F8787908BA18BB28BDF91DD
:1018C000CF9108950F931F93CF93DF93EB01DC012A
:1018D00012960D911C911397ED91FC910280F3816A
:1018E000E02D0995C00FD11FC80FD11D8881DF9150
:1018F000CF911F910F910895FC01128611861486D5
:1019000015861782108615820E9691838083E4587F
:10191000FF4F84E696E0918380830895FC01E458AC
:10192000FF4F718360830895FC01E458FF4F80816D
:101930009181DC01ED91FC910480F581E02D099508
:1019400021E0009709F420E0822F0895FC01E4587B
:10195000FF4F80819181DC01ED91FC910680F78140
:10196000E02D09950895FC01E458FF4F8081918195
:10197000DC01ED91FC910284F385E02D0995089539
:10198000FC01E458FF4FA081B181ED91FC911197CA
:101990000190F081E02DCD01099508950895DF9221
:1019A000EF92FF920F931F93CF93DF93EC018F8100
:1019B000882321F48885882309F474C01A8619863F
:1019C0001F8218861D821A821B821C821E826AC098
:1019D000CE010E94A60C8B879A85992399F08E37A9
:1019E00011F483E03AC08D3769F4CE010E94940C63
:1019F000882331F0CE010E94A60C81278B8702C07C
:101A0000098758C08985882321F08B8581278B879A
:101A100019864A85433020F08C859B85890F8C87F9
:101A2000413061F0413028F0423061F0433091F4B0
:101A30000DC08B858E37F1F50A873CC08B858B8373
:101A4000DA8638C08B858C83EA8634C08B858A839E
:101A5000FA8630C04F3618F082E0888731C0242FD4
:101A600030E08C8190E003962817390781F48C854B
:101A70008F3F31F48B858D8381E08F83188602C080
:101A800081E0888744504E831A861C8619C0E881FD
:101A9000F981E20FF31F34978B8580838A858F5FEE
:101AA0008A8708C0A2E0DA2E01E0F3E0EF2EE4E03E
:101AB000FE2E10E2CE010E94940C882309F088CFFC
:101AC000DF91CF911F910F91FF90EF90DF900895DC
:101AD0000F931F93FC0140835183628373830483BC
:101AE0001583268337831F910F910895CF93DF933A
:101AF000FC0180E1828381E08383558344832683D4
:101B000087E191E091838083EF012796862F972FBD
:101B1000DC0188E00D9009928150E1F78EEF9FEF94
:101B2000908B8787118A128ADF91CF9108951F9336
:101B3000CF93DF93EC01162F442381F0862F8D572E
:101B4000823020F0613111F0633141F4CE016DE754
:101B50000E94C00C60E26127CE0102C0CE01612F5D
:101B60000E94C00CDF91CF911F910895DF92EF92F8
:101B7000FF920F931F93CF93DF938C01EB016EE7DE
:101B800040E00E94970DE881F9810280F381E02D09
:101B9000CE010995D82EE881F9810280F381E02DEC
:101BA000CE010995E82E2D2D30E02E5F3F4FC80164
:101BB000632F41E00E94970D6E2D6E5FC80141E0DA
:101BC0000E94970DC8016A8141E00E94970DC801EB
:101BD0006B8141E00E94970DDB808A81D80EEE2454
:101BE000FF2419C0E881F9810190F081E02DCE0138
:101BF0006E2D0995682FC80141E00E94970DE8817C
:101C0000F9810190F081E02DCE016E2D0995D80E5D
:101C10000894E11CF11CE881F9810280F381E02D38
:101C2000CE01099590E0E816F906E4F26D2D609575
:101C3000C80141E00E94970DC8010E94B30CDF91DA
:101C4000CF911F910F91FF90EF90DF900895109228
:101C500098061092990610929A0610929B068FEFA2
:101C60009FEFA0E0B0E080939C0690939D06A09328
:101C70009E06B0939F060895629FD001739FF00166
:101C8000829FE00DF11D649FE00DF11D929FF00D0C
:101C9000839FF00D749FF00D659FF00D9927729F43
:101CA000B00DE11DF91F639FB00DE11DF91FBD01CE
:101CB000CF0111240895991B79E004C0991F96174C
:101CC00008F0961B881F7A95C9F78095089597FBB1
:101CD000092E07260AD077FD04D049D006D000206F
:101CE0001AF4709561957F4F0895F6F79095819558
:101CF0009F4F0895A1E21A2EAA1BBB1BFD010DC028
:101D0000AA1FBB1FEE1FFF1FA217B307E407F507AB
:101D100020F0A21BB30BE40BF50B661F771F881F87
:101D2000991F1A9469F760957095809590959B011D
:101D3000AC01BD01CF01089597FB092E05260ED0F9
:101D400057FD04D0D7DF0AD0001C38F450954095D9
:101D5000309521953F4F4F4F5F4F0895F6F790957F
:101D60008095709561957F4F8F4F9F4F0895AA1B67
:101D7000BB1B51E107C0AA1FBB1FA617B70710F076
:101D8000A61BB70B881F991F5A95A9F780959095A8
:101D9000BC01CD010895EE0FFF1F0590F491E02DD9
:061DA0000994F894FFCF46
:101DA6000104FF0000000006079C08A106D006B447
:101DB60006F20600000000840BBD0B00000000695F
:061DC6000B790B820B00FB
:00000001FF
